:020000020000FC
:0200000028C016
:0200100030C1FD
:020040000EC1EF
:100050000EC100E007B908E00EBF0FEF0DBF02E0D0
:10006000009368000EE000936C0004E005BD01E021
:1000700000936E0000E006BD01EF07B940E0E0E04C
:10008000A0E0519A13E020E42093C4001093C5002F
:1000900032E43093C00036E03093C20038E430934D
:1000A000C100E0E2789470E07F70F0E87F0F0E947A
:1000B000780071E07F70F0E87F0F0E94780072E0B6
:1000C0007F70F0E87F0F0E94780073E07F70F0E8A7
:1000D0007F0F0E94780074E07F70F0E87F0F0E942D
:1000E000780075E07F70F0E87F0F0E947800DBCF2A
:1000F00080E08F70F0E48F0F0E94B50081E08F7078
:10010000F0E48F0F0E94B50082E08F70F0E48F0F53
:100110000E94B50083E08F70F0E48F0F0E94B5005D
:1001200084E08F70F0E48F0F0E94B50085E08F703F
:10013000F0E48F0F0E94B50086E08F70F0E48F0F1F
:100140000E94B50087E08F70F0E48F0F0E94B50029
:1001500088E08F70F0E48F0F0E94B50089E08F7007
:10016000F0E48F0F0E94B5000895B0E0BF70F0E298
:10017000BF0F0E94DA00B1E0BF70F0E2BF0F0E9433
:10018000DA00B2E0BF70F0E2BF0F0E94DA00B3E025
:10019000BF70F0E2BF0F0E94DA00B4E0BF70F0E27F
:1001A000BF0F0E94DA00B5E0BF70F0E2BF0F0E94FF
:1001B000DA000895C0E0CF70F0E1CF0F0E94170180
:1001C000C1E0CF70F0E1CF0F0E941701C2E0CF7005
:1001D000F0E1CF0F0E941701C3E0CF70F0E1CF0F25
:1001E0000E941701C4E0CF70F0E1CF0F0E94170109
:1001F000C5E0CF70F0E1CF0F0E941701C6E0CF70CD
:10020000F0E1CF0F0E941701C7E0CF70F0E1CF0FF0
:100210000E941701C8E0CF70F0E1CF0F0E941701D4
:10022000C9E0CF70F0E1CF0F0E94170108954F3F52
:10023000A1F094EFE160572FE0FDFDCFE160582F72
:10024000E0FDFDCFE1605B2FE0FDFDCFE1605C2FC5
:10025000E0FDFDCF9A13FECF089540E024CF9A959C
:10026000E5FF18955093C600E072E2701895E062C1
:100270001895D6B1D1FF0E944101D3FF0E944B01D6
:1002800018950E9444010895D6B1D2FF0895D3FF76
:0A0290000E944B01F9CF4FEF0895D3
:00000001FF
