:020000020000FC
:0200000024C01A
:020040002CC0D2
:1000480039C008E00EBF0FEF0DBF02E005BD01E0AB
:1000580000936E0000E006BD00E90AB95F985C985D
:100068000FEF10EF0E94A3000FEF04B913E015B9CA
:1000780028E030E43093C4001093C50042E2409376
:10008800C00056E05093C20060E96093C1007894C4
:10009800FFCF092F10E80E94A3000A2F10E40E9446
:1000A800A3000B2F10E20E94A3000C2F10E10E9466
:1000B800A30018951091C600012F107F0F70302FE4
:1000C800712F0E947A00103839F0103439F010324C
:1000D80049F0103149F01895932F1895A32FD1E0C6
:1000E800AD1B1895B32F1895C32F1895303099F07C
:1000F800313099F0323099F0333099F0343099F04A
:10010800353099F0363099F0373099F0383099F029
:10011800393099F0089533E0FDCF3FE9FBCF35E260
:10012800F9CF3DE0F7CF39E9F5CF39E4F3CF31E442
:10013800F1CF3FE1EFCF31E0EDCF39E0EBCF0E94D7
:10014800AB00012F0E94AB005C9A5C98089528E0F0
:100158005F98069510F0289801C0289A5F9A2A950A
:04016800B9F7089546
:00000001FF
